{
  "_format": "hh-sol-artifact-1",
  "contractName": "Message",
  "sourceName": "contracts/Message.sol",
  "abi": [
    {
      "inputs": [],
      "stateMutability": "nonpayable",
      "type": "constructor"
    },
    {
      "anonymous": false,
      "inputs": [
        {
          "indexed": false,
          "internalType": "address",
          "name": "sender",
          "type": "address"
        },
        {
          "indexed": false,
          "internalType": "string",
          "name": "purpose",
          "type": "string"
        }
      ],
      "name": "SetMessage",
      "type": "event"
    },
    {
      "inputs": [],
      "name": "message",
      "outputs": [
        {
          "internalType": "string",
          "name": "",
          "type": "string"
        }
      ],
      "stateMutability": "view",
      "type": "function"
    },
    {
      "inputs": [
        {
          "internalType": "string",
          "name": "_message",
          "type": "string"
        }
      ],
      "name": "setMessage",
      "outputs": [],
      "stateMutability": "payable",
      "type": "function"
    }
  ],
  "bytecode": "0x60806040526040518060400160405280601781526020017f517569636b6c7920736869702057656233204170707321000000000000000000815250600090816200004a9190620002d9565b503480156200005857600080fd5b50620003c0565b600081519050919050565b7f4e487b7100000000000000000000000000000000000000000000000000000000600052604160045260246000fd5b7f4e487b7100000000000000000000000000000000000000000000000000000000600052602260045260246000fd5b60006002820490506001821680620000e157607f821691505b602082108103620000f757620000f662000099565b5b50919050565b60008190508160005260206000209050919050565b60006020601f8301049050919050565b600082821b905092915050565b600060088302620001617fffffffffffffffffffffffffffffffffffffffffffffffffffffffffffffffff8262000122565b6200016d868362000122565b95508019841693508086168417925050509392505050565b6000819050919050565b6000819050919050565b6000620001ba620001b4620001ae8462000185565b6200018f565b62000185565b9050919050565b6000819050919050565b620001d68362000199565b620001ee620001e582620001c1565b8484546200012f565b825550505050565b600090565b62000205620001f6565b62000212818484620001cb565b505050565b5b818110156200023a576200022e600082620001fb565b60018101905062000218565b5050565b601f82111562000289576200025381620000fd565b6200025e8462000112565b810160208510156200026e578190505b620002866200027d8562000112565b83018262000217565b50505b505050565b600082821c905092915050565b6000620002ae600019846008026200028e565b1980831691505092915050565b6000620002c983836200029b565b9150826002028217905092915050565b620002e4826200005f565b67ffffffffffffffff8111156200030057620002ff6200006a565b5b6200030c8254620000c8565b620003198282856200023e565b600060209050601f8311600181146200035157600084156200033c578287015190505b620003488582620002bb565b865550620003b8565b601f1984166200036186620000fd565b60005b828110156200038b5784890151825560018201915060208501945060208101905062000364565b86831015620003ab5784890151620003a7601f8916826200029b565b8355505b6001600288020188555050505b505050505050565b61072280620003d06000396000f3fe6080604052600436106100295760003560e01c8063368b87721461002e578063e21f37ce1461004a575b600080fd5b610048600480360381019061004391906102a9565b610075565b005b34801561005657600080fd5b5061005f6100c1565b60405161006c9190610371565b60405180910390f35b806000908161008491906105a9565b507f3c55514de50d14506d6b7e1d1e94ee2f674c70c69370e5fe71a0d9de7c88385433826040516100b69291906106bc565b60405180910390a150565b600080546100ce906103c2565b80601f01602080910402602001604051908101604052809291908181526020018280546100fa906103c2565b80156101475780601f1061011c57610100808354040283529160200191610147565b820191906000526020600020905b81548152906001019060200180831161012a57829003601f168201915b505050505081565b6000604051905090565b600080fd5b600080fd5b600080fd5b600080fd5b6000601f19601f8301169050919050565b7f4e487b7100000000000000000000000000000000000000000000000000000000600052604160045260246000fd5b6101b68261016d565b810181811067ffffffffffffffff821117156101d5576101d461017e565b5b80604052505050565b60006101e861014f565b90506101f482826101ad565b919050565b600067ffffffffffffffff8211156102145761021361017e565b5b61021d8261016d565b9050602081019050919050565b82818337600083830152505050565b600061024c610247846101f9565b6101de565b90508281526020810184848401111561026857610267610168565b5b61027384828561022a565b509392505050565b600082601f8301126102905761028f610163565b5b81356102a0848260208601610239565b91505092915050565b6000602082840312156102bf576102be610159565b5b600082013567ffffffffffffffff8111156102dd576102dc61015e565b5b6102e98482850161027b565b91505092915050565b600081519050919050565b600082825260208201905092915050565b60005b8381101561032c578082015181840152602081019050610311565b60008484015250505050565b6000610343826102f2565b61034d81856102fd565b935061035d81856020860161030e565b6103668161016d565b840191505092915050565b6000602082019050818103600083015261038b8184610338565b905092915050565b7f4e487b7100000000000000000000000000000000000000000000000000000000600052602260045260246000fd5b600060028204905060018216806103da57607f821691505b6020821081036103ed576103ec610393565b5b50919050565b60008190508160005260206000209050919050565b60006020601f8301049050919050565b600082821b905092915050565b6000600883026104557fffffffffffffffffffffffffffffffffffffffffffffffffffffffffffffffff82610418565b61045f8683610418565b95508019841693508086168417925050509392505050565b6000819050919050565b6000819050919050565b60006104a66104a161049c84610477565b610481565b610477565b9050919050565b6000819050919050565b6104c08361048b565b6104d46104cc826104ad565b848454610425565b825550505050565b600090565b6104e96104dc565b6104f48184846104b7565b505050565b5b818110156105185761050d6000826104e1565b6001810190506104fa565b5050565b601f82111561055d5761052e816103f3565b61053784610408565b81016020851015610546578190505b61055a61055285610408565b8301826104f9565b50505b505050565b600082821c905092915050565b600061058060001984600802610562565b1980831691505092915050565b6000610599838361056f565b9150826002028217905092915050565b6105b2826102f2565b67ffffffffffffffff8111156105cb576105ca61017e565b5b6105d582546103c2565b6105e082828561051c565b600060209050601f8311600181146106135760008415610601578287015190505b61060b858261058d565b865550610673565b601f198416610621866103f3565b60005b8281101561064957848901518255600182019150602085019450602081019050610624565b868310156106665784890151610662601f89168261056f565b8355505b6001600288020188555050505b505050505050565b600073ffffffffffffffffffffffffffffffffffffffff82169050919050565b60006106a68261067b565b9050919050565b6106b68161069b565b82525050565b60006040820190506106d160008301856106ad565b81810360208301526106e38184610338565b9050939250505056fea264697066735822122025698476a25ab2d3138d83fbaeb8c2c2dffc1a8c5ad50b375aa589256ddb1df764736f6c63430008180033",
  "linkReferences": {},
  "deployedLinkReferences": {}
}